{
  "transactions": [
    {
      "hash": "0x789749d7c6233846c648d445430fdf50cc1e606a519461f9997b27b6c497ba57",
      "transactionType": "CALL",
      "contractName": "LoyaltyPoint",
      "contractAddress": "0xdffac9197c2e2505600529687c889920c4054e4a",
      "function": "addHook(address)",
      "arguments": [
        "0xf385b659DD1B6785d4FDf83E34Ee228d2Fb10281"
      ],
      "transaction": {
        "from": "0xa272c14931e725d5cdb30f87af77cf5ce3d20b32",
        "to": "0xdffac9197c2e2505600529687c889920c4054e4a",
        "gas": "0x3ade1e",
        "value": "0x0",
        "input": "0x7b4e04e8000000000000000000000000f385b659dd1b6785d4fdf83e34ee228d2fb10281",
        "nonce": "0xd",
        "chainId": "0x34c1"
      },
      "additionalContracts": [],
      "isFixedGasLimit": false
    }
  ],
  "receipts": [
    {
      "status": "0x1",
      "cumulativeGasUsed": "0x1058e8",
      "logs": [],
      "logsBloom": "0x00000000000000000000000000000000000000000000000000000000000000000000000000000000000000000000000000000000000000000000000000000000000000000000000000000000000000000000000000000000000000000000000000000000000000000000000000000000000000000000000000000000000000000000000000000000000000000000000000000000000000000000000000000000000000000000000000000000000000000000000000000000000000000000000000000000000000000000000000000000000000000000000000000000000000000000000000000000000000000000000000000000000000000000000000000000",
      "type": "0x2",
      "transactionHash": "0x789749d7c6233846c648d445430fdf50cc1e606a519461f9997b27b6c497ba57",
      "transactionIndex": "0x1",
      "blockHash": "0x566aa2bac1db9e7234dbc245bf2f2e7b5be55c3a47115bdecc1a74cd856f8b8a",
      "blockNumber": "0x9e",
      "gasUsed": "0x1058e8",
      "effectiveGasPrice": "0x5f5e100",
      "from": "0xa272c14931e725d5cdb30f87af77cf5ce3d20b32",
      "to": "0xdffac9197c2e2505600529687c889920c4054e4a",
      "contractAddress": null,
      "gasUsedForL1": "0xf4cfe",
      "l1BlockNumber": "0x692883"
    }
  ],
  "libraries": [],
  "pending": [],
  "returns": {},
  "timestamp": 1729159236,
  "chain": 13505,
  "commit": "35ba0a2"
}