{
  "transactions": [
    {
      "hash": "0xa4d01f742a1f532cecdb3b0c0a1a3b0922603cec4cf0edf46bd00c549ad03b75",
      "transactionType": "CALL",
      "contractName": "LoyaltyPoint",
      "contractAddress": "0xdffac9197c2e2505600529687c889920c4054e4a",
      "function": "mint(address,uint256)",
      "arguments": [
        "0xa272C14931E725D5cDB30f87Af77CF5Ce3d20B32",
        "1"
      ],
      "transaction": {
        "from": "0xa272c14931e725d5cdb30f87af77cf5ce3d20b32",
        "to": "0xdffac9197c2e2505600529687c889920c4054e4a",
        "gas": "0x43bef8",
        "value": "0x0",
        "input": "0x40c10f19000000000000000000000000a272c14931e725d5cdb30f87af77cf5ce3d20b320000000000000000000000000000000000000000000000000000000000000001",
        "nonce": "0xe",
        "chainId": "0x34c1"
      },
      "additionalContracts": [],
      "isFixedGasLimit": false
    }
  ],
  "receipts": [
    {
      "status": "0x1",
      "cumulativeGasUsed": "0x13fcd6",
      "logs": [
        {
          "address": "0xf385b659dd1b6785d4fdf83e34ee228d2fb10281",
          "topics": [
            "0x31f7dd6ec1243a30f23534262ff59455ba303d82d6a44c17c05ad32772dd5bc8",
            "0x0000000000000000000000000000000000000000000000000000000000000000",
            "0x000000000000000000000000a272c14931e725d5cdb30f87af77cf5ce3d20b32"
          ],
          "data": "0x0000000000000000000000000000000000000000000000000000000000000001",
          "blockHash": "0xced7f54ad811abeabb970aa794ac9004413c7c050f41d52db2d7d4a18b84a336",
          "blockNumber": "0x9f",
          "transactionHash": "0xa4d01f742a1f532cecdb3b0c0a1a3b0922603cec4cf0edf46bd00c549ad03b75",
          "transactionIndex": "0x1",
          "logIndex": "0x0",
          "removed": false
        },
        {
          "address": "0xdffac9197c2e2505600529687c889920c4054e4a",
          "topics": [
            "0xddf252ad1be2c89b69c2b068fc378daa952ba7f163c4a11628f55a4df523b3ef",
            "0x0000000000000000000000000000000000000000000000000000000000000000",
            "0x000000000000000000000000a272c14931e725d5cdb30f87af77cf5ce3d20b32"
          ],
          "data": "0x0000000000000000000000000000000000000000000000000000000000000001",
          "blockHash": "0xced7f54ad811abeabb970aa794ac9004413c7c050f41d52db2d7d4a18b84a336",
          "blockNumber": "0x9f",
          "transactionHash": "0xa4d01f742a1f532cecdb3b0c0a1a3b0922603cec4cf0edf46bd00c549ad03b75",
          "transactionIndex": "0x1",
          "logIndex": "0x1",
          "removed": false
        }
      ],
      "logsBloom": "0x00000000000000000000000000000000000000000000000000000000000000000000000000000000000000000000000000800000010000000000000000000000000000000000000000000008000004000000000000000000000000000000000000000000020000000000000000000800010000000004000000000010000000000040000000000000000000000000000000000000000000000000000000000000000000000000000000000000000000000000000000000000000000000000008000000002000040000000000000000000000000000000400000000000000020000000020000000000000000000000002000000000200000000000000000000000",
      "type": "0x2",
      "transactionHash": "0xa4d01f742a1f532cecdb3b0c0a1a3b0922603cec4cf0edf46bd00c549ad03b75",
      "transactionIndex": "0x1",
      "blockHash": "0xced7f54ad811abeabb970aa794ac9004413c7c050f41d52db2d7d4a18b84a336",
      "blockNumber": "0x9f",
      "gasUsed": "0x13fcd6",
      "effectiveGasPrice": "0x5f5e100",
      "from": "0xa272c14931e725d5cdb30f87af77cf5ce3d20b32",
      "to": "0xdffac9197c2e2505600529687c889920c4054e4a",
      "contractAddress": null,
      "gasUsedForL1": "0x12b661",
      "l1BlockNumber": "0x692894"
    }
  ],
  "libraries": [],
  "pending": [],
  "returns": {},
  "timestamp": 1729159482,
  "chain": 13505,
  "commit": "35ba0a2"
}